{
  "_format": "hh-sol-artifact-1",
  "contractName": "DepositContract",
  "sourceName": "contracts/Eth2Deposit.sol",
  "abi": [
    {
      "inputs": [],
      "stateMutability": "nonpayable",
      "type": "constructor"
    },
    {
      "anonymous": false,
      "inputs": [
        {
          "indexed": false,
          "internalType": "bytes",
          "name": "pubkey",
          "type": "bytes"
        },
        {
          "indexed": false,
          "internalType": "bytes",
          "name": "withdrawal_credentials",
          "type": "bytes"
        },
        {
          "indexed": false,
          "internalType": "bytes",
          "name": "amount",
          "type": "bytes"
        },
        {
          "indexed": false,
          "internalType": "bytes",
          "name": "signature",
          "type": "bytes"
        },
        {
          "indexed": false,
          "internalType": "bytes",
          "name": "index",
          "type": "bytes"
        }
      ],
      "name": "DepositEvent",
      "type": "event"
    },
    {
      "inputs": [
        {
          "internalType": "bytes",
          "name": "pubkey",
          "type": "bytes"
        },
        {
          "internalType": "bytes",
          "name": "withdrawal_credentials",
          "type": "bytes"
        },
        {
          "internalType": "bytes",
          "name": "signature",
          "type": "bytes"
        },
        {
          "internalType": "bytes32",
          "name": "deposit_data_root",
          "type": "bytes32"
        }
      ],
      "name": "deposit",
      "outputs": [],
      "stateMutability": "payable",
      "type": "function"
    },
    {
      "inputs": [],
      "name": "get_deposit_count",
      "outputs": [
        {
          "internalType": "bytes",
          "name": "",
          "type": "bytes"
        }
      ],
      "stateMutability": "view",
      "type": "function"
    },
    {
      "inputs": [],
      "name": "get_deposit_root",
      "outputs": [
        {
          "internalType": "bytes32",
          "name": "",
          "type": "bytes32"
        }
      ],
      "stateMutability": "view",
      "type": "function"
    },
    {
      "inputs": [
        {
          "internalType": "bytes4",
          "name": "interfaceId",
          "type": "bytes4"
        }
      ],
      "name": "supportsInterface",
      "outputs": [
        {
          "internalType": "bool",
          "name": "",
          "type": "bool"
        }
      ],
      "stateMutability": "pure",
      "type": "function"
    }
  ],
  "bytecode": "0x608060405234801561001057600080fd5b5060005b601f8110156101025760026021826020811061002c57fe5b01546021836020811061003b57fe5b015460405160200180838152602001828152602001925050506040516020818303038152906040526040518082805190602001908083835b602083106100925780518252601f199092019160209182019101610073565b51815160209384036101000a60001901801990921691161790526040519190930194509192505080830381855afa1580156100d1573d6000803e3d6000fd5b5050506040513d60208110156100e657600080fd5b5051602160018301602081106100f857fe5b0155600101610014565b506113ab806101126000396000f3fe60806040526004361061003f5760003560e01c806301ffc9a71461004457806322895118146100a4578063621fd130146101ba578063c5f2892f14610244575b600080fd5b34801561005057600080fd5b506100906004803603602081101561006757600080fd5b50357fffffffff000000000000000000000000000000000000000000000000000000001661026b565b604080519115158252519081900360200190f35b6101b8600480360360808110156100ba57600080fd5b8101906020810181356401000000008111156100d557600080fd5b8201836020820111156100e757600080fd5b8035906020019184600183028401116401000000008311171561010957600080fd5b91939092909160208101903564010000000081111561012757600080fd5b82018360208201111561013957600080fd5b8035906020019184600183028401116401000000008311171561015b57600080fd5b91939092909160208101903564010000000081111561017957600080fd5b82018360208201111561018b57600080fd5b803590602001918460018302840111640100000000831117156101ad57600080fd5b919350915035610304565b005b3480156101c657600080fd5b506101cf610d6f565b6040805160208082528351818301528351919283929083019185019080838360005b838110156102095781810151838201526020016101f1565b50505050905090810190601f1680156102365780820380516001836020036101000a031916815260200191505b509250505060405180910390f35b34801561025057600080fd5b50610259610d81565b60408051918252519081900360200190f35b60007fffffffff0000000000000000000000000000000000000000000000000000000082167f01ffc9a70000000000000000000000000000000000000000000000000000000014806102fe57507fffffffff0000000000000000000000000000000000000000000000000000000082167f8564090700000000000000000000000000000000000000000000000000000000145b92915050565b603086146103435760405162461bcd60e51b81526004018080602001828103825260268152602001806112da6026913960400191505060405180910390fd5b602084146103825760405162461bcd60e51b81526004018080602001828103825260368152602001806112716036913960400191505060405180910390fd5b606082146103c15760405162461bcd60e51b815260040180806020018281038252602981526020018061134d6029913960400191505060405180910390fd5b670de0b6b3a76400003410156104085760405162461bcd60e51b81526004018080602001828103825260268152602001806113276026913960400191505060405180910390fd5b633b9aca0034061561044b5760405162461bcd60e51b81526004018080602001828103825260338152602001806112a76033913960400191505060405180910390fd5b633b9aca00340467ffffffffffffffff8111156104995760405162461bcd60e51b81526004018080602001828103825260278152602001806113006027913960400191505060405180910390fd5b60606104a48261104f565b90507f649bbc62d0e31342afea4e5cd82d4049e7e1ee912fc0889aa790803be39038c589898989858a8a6104d960205461104f565b6040805160a0808252810189905290819060208201908201606083016080840160c085018e8e80828437600083820152601f01601f191690910187810386528c815260200190508c8c808284376000838201819052601f909101601f191690920188810386528c5181528c51602091820193918e019250908190849084905b83811015610570578181015183820152602001610558565b50505050905090810190601f16801561059d5780820380516001836020036101000a031916815260200191505b5086810383528881526020018989808284376000838201819052601f909101601f19169092018881038452895181528951602091820193918b019250908190849084905b838110156105f95781810151838201526020016105e1565b50505050905090810190601f1680156106265780820380516001836020036101000a031916815260200191505b509d505050505050505050505050505060405180910390a1600060028a8a600060801b604051602001808484808284377fffffffffffffffffffffffffffffffff000000000000000000000000000000009094169190930190815260408051600f19818403018152601090920190819052815191955093508392506020850191508083835b602083106106ca5780518252601f1990920191602091820191016106ab565b51815160209384036101000a60001901801990921691161790526040519190930194509192505080830381855afa158015610709573d6000803e3d6000fd5b5050506040513d602081101561071e57600080fd5b5051905060006002806107346040848a8c6111d3565b6040516020018083838082843780830192505050925050506040516020818303038152906040526040518082805190602001908083835b6020831061078a5780518252601f19909201916020918201910161076b565b51815160209384036101000a60001901801990921691161790526040519190930194509192505080830381855afa1580156107c9573d6000803e3d6000fd5b5050506040513d60208110156107de57600080fd5b505160026107ef896040818d6111d3565b60405160009060200180848480828437919091019283525050604080518083038152602092830191829052805190945090925082918401908083835b6020831061084a5780518252601f19909201916020918201910161082b565b51815160209384036101000a60001901801990921691161790526040519190930194509192505080830381855afa158015610889573d6000803e3d6000fd5b5050506040513d602081101561089e57600080fd5b5051604080516020818101949094528082019290925280518083038201815260609092019081905281519192909182918401908083835b602083106108f45780518252601f1990920191602091820191016108d5565b51815160209384036101000a60001901801990921691161790526040519190930194509192505080830381855afa158015610933573d6000803e3d6000fd5b5050506040513d602081101561094857600080fd5b50516040805160208101858152929350600092600292839287928f928f92018383808284378083019250505093505050506040516020818303038152906040526040518082805190602001908083835b602083106109b75780518252601f199092019160209182019101610998565b51815160209384036101000a60001901801990921691161790526040519190930194509192505080830381855afa1580156109f6573d6000803e3d6000fd5b5050506040513d6020811015610a0b57600080fd5b50516040518651600291889160009188916020918201918291908601908083835b60208310610a4b5780518252601f199092019160209182019101610a2c565b6001836020036101000a0380198251168184511680821785525050505050509050018367ffffffffffffffff191667ffffffffffffffff1916815260180182815260200193505050506040516020818303038152906040526040518082805190602001908083835b60208310610ad25780518252601f199092019160209182019101610ab3565b51815160209384036101000a60001901801990921691161790526040519190930194509192505080830381855afa158015610b11573d6000803e3d6000fd5b5050506040513d6020811015610b2657600080fd5b5051604080516020818101949094528082019290925280518083038201815260609092019081905281519192909182918401908083835b60208310610b7c5780518252601f199092019160209182019101610b5d565b51815160209384036101000a60001901801990921691161790526040519190930194509192505080830381855afa158015610bbb573d6000803e3d6000fd5b5050506040513d6020811015610bd057600080fd5b50519050858114610c125760405162461bcd60e51b815260040180806020018281038252605481526020018061121d6054913960600191505060405180910390fd5b60205463ffffffff11610c565760405162461bcd60e51b81526004018080602001828103825260218152602001806111fc6021913960400191505060405180910390fd5b602080546001019081905560005b6020811015610d63578160011660011415610c96578260008260208110610c8757fe5b015550610d6695505050505050565b600260008260208110610ca557fe5b01548460405160200180838152602001828152602001925050506040516020818303038152906040526040518082805190602001908083835b60208310610cfd5780518252601f199092019160209182019101610cde565b51815160209384036101000a60001901801990921691161790526040519190930194509192505080830381855afa158015610d3c573d6000803e3d6000fd5b5050506040513d6020811015610d5157600080fd5b50519250600282049150600101610c64565b50fe5b50505050505050565b6060610d7c60205461104f565b905090565b6020546000908190815b6020811015610f32578160011660011415610e6457600260008260208110610daf57fe5b01548460405160200180838152602001828152602001925050506040516020818303038152906040526040518082805190602001908083835b60208310610e075780518252601f199092019160209182019101610de8565b51815160209384036101000a60001901801990921691161790526040519190930194509192505080830381855afa158015610e46573d6000803e3d6000fd5b5050506040513d6020811015610e5b57600080fd5b50519250610f24565b60028360218360208110610e7457fe5b015460405160200180838152602001828152602001925050506040516020818303038152906040526040518082805190602001908083835b60208310610ecb5780518252601f199092019160209182019101610eac565b51815160209384036101000a60001901801990921691161790526040519190930194509192505080830381855afa158015610f0a573d6000803e3d6000fd5b5050506040513d6020811015610f1f57600080fd5b505192505b600282049150600101610d8b565b50600282610f4160205461104f565b600060401b6040516020018084815260200183805190602001908083835b60208310610f7e5780518252601f199092019160209182019101610f5f565b51815160209384036101000a600019018019909216911617905267ffffffffffffffff199590951692019182525060408051808303600719018152601890920190819052815191955093508392850191508083835b60208310610ff25780518252601f199092019160209182019101610fd3565b51815160209384036101000a60001901801990921691161790526040519190930194509192505080830381855afa158015611031573d6000803e3d6000fd5b5050506040513d602081101561104657600080fd5b50519250505090565b60408051600880825281830190925260609160208201818036833701905050905060c082901b8060071a60f81b8260008151811061108957fe5b60200101906001600160f81b031916908160001a9053508060061a60f81b826001815181106110b457fe5b60200101906001600160f81b031916908160001a9053508060051a60f81b826002815181106110df57fe5b60200101906001600160f81b031916908160001a9053508060041a60f81b8260038151811061110a57fe5b60200101906001600160f81b031916908160001a9053508060031a60f81b8260048151811061113557fe5b60200101906001600160f81b031916908160001a9053508060021a60f81b8260058151811061116057fe5b60200101906001600160f81b031916908160001a9053508060011a60f81b8260068151811061118b57fe5b60200101906001600160f81b031916908160001a9053508060001a60f81b826007815181106111b657fe5b60200101906001600160f81b031916908160001a90535050919050565b600080858511156111e2578182fd5b838611156111ee578182fd5b505082019391909203915056fe4465706f736974436f6e74726163743a206d65726b6c6520747265652066756c6c4465706f736974436f6e74726163743a207265636f6e7374727563746564204465706f7369744461746120646f6573206e6f74206d6174636820737570706c696564206465706f7369745f646174615f726f6f744465706f736974436f6e74726163743a20696e76616c6964207769746864726177616c5f63726564656e7469616c73206c656e6774684465706f736974436f6e74726163743a206465706f7369742076616c7565206e6f74206d756c7469706c65206f6620677765694465706f736974436f6e74726163743a20696e76616c6964207075626b6579206c656e6774684465706f736974436f6e74726163743a206465706f7369742076616c756520746f6f20686967684465706f736974436f6e74726163743a206465706f7369742076616c756520746f6f206c6f774465706f736974436f6e74726163743a20696e76616c6964207369676e6174757265206c656e677468a2646970667358221220e1a621117bc66acf5c30284006a31b8edfbb143fdad7f8f86dfbbf01243ceaba64736f6c634300060b0033",
  "linkReferences": {},
  "deployedLinkReferences": {}
}